{
  "contractName": "MinterRole",
  "abi": [
    {
      "inputs": [],
      "payable": false,
      "stateMutability": "nonpayable",
      "type": "constructor"
    },
    {
      "anonymous": false,
      "inputs": [
        {
          "indexed": true,
          "name": "account",
          "type": "address"
        }
      ],
      "name": "MinterAdded",
      "type": "event"
    },
    {
      "anonymous": false,
      "inputs": [
        {
          "indexed": true,
          "name": "account",
          "type": "address"
        }
      ],
      "name": "MinterRemoved",
      "type": "event"
    },
    {
      "constant": true,
      "inputs": [
        {
          "name": "account",
          "type": "address"
        }
      ],
      "name": "isMinter",
      "outputs": [
        {
          "name": "",
          "type": "bool"
        }
      ],
      "payable": false,
      "stateMutability": "view",
      "type": "function"
    },
    {
      "constant": false,
      "inputs": [
        {
          "name": "account",
          "type": "address"
        }
      ],
      "name": "addMinter",
      "outputs": [],
      "payable": false,
      "stateMutability": "nonpayable",
      "type": "function"
    },
    {
      "constant": false,
      "inputs": [],
      "name": "renounceMinter",
      "outputs": [],
      "payable": false,
      "stateMutability": "nonpayable",
      "type": "function"
    }
  ],
  "bytecode": "0x608060405234801561001057600080fd5b50610032336000610037640100000000026101b2179091906401000000009004565b6100d1565b600073ffffffffffffffffffffffffffffffffffffffff168173ffffffffffffffffffffffffffffffffffffffff161415151561007357600080fd5b60018260000160008373ffffffffffffffffffffffffffffffffffffffff1673ffffffffffffffffffffffffffffffffffffffff16815260200190815260200160002060006101000a81548160ff0219169083151502179055505050565b6103a6806100e06000396000f300608060405260043610610057576000357c0100000000000000000000000000000000000000000000000000000000900463ffffffff168063983b2d561461005c578063986502751461009f578063aa271e1a146100b6575b600080fd5b34801561006857600080fd5b5061009d600480360381019080803573ffffffffffffffffffffffffffffffffffffffff169060200190929190505050610111565b005b3480156100ab57600080fd5b506100b461017f565b005b3480156100c257600080fd5b506100f7600480360381019080803573ffffffffffffffffffffffffffffffffffffffff169060200190929190505050610195565b604051808215151515815260200191505060405180910390f35b61011a33610195565b151561012557600080fd5b6101398160006101b290919063ffffffff16565b8073ffffffffffffffffffffffffffffffffffffffff167f6ae172837ea30b801fbfcdd4108aa1d5bf8ff775444fd70256b44e6bf3dfc3f660405160405180910390a250565b61019333600061024c90919063ffffffff16565b565b60006101ab8260006102e690919063ffffffff16565b9050919050565b600073ffffffffffffffffffffffffffffffffffffffff168173ffffffffffffffffffffffffffffffffffffffff16141515156101ee57600080fd5b60018260000160008373ffffffffffffffffffffffffffffffffffffffff1673ffffffffffffffffffffffffffffffffffffffff16815260200190815260200160002060006101000a81548160ff0219169083151502179055505050565b600073ffffffffffffffffffffffffffffffffffffffff168173ffffffffffffffffffffffffffffffffffffffff161415151561028857600080fd5b60008260000160008373ffffffffffffffffffffffffffffffffffffffff1673ffffffffffffffffffffffffffffffffffffffff16815260200190815260200160002060006101000a81548160ff0219169083151502179055505050565b60008073ffffffffffffffffffffffffffffffffffffffff168273ffffffffffffffffffffffffffffffffffffffff161415151561032357600080fd5b8260000160008373ffffffffffffffffffffffffffffffffffffffff1673ffffffffffffffffffffffffffffffffffffffff16815260200190815260200160002060009054906101000a900460ff169050929150505600a165627a7a72305820d9a271aa79bd7351550960cef5ea0fbb0dba7b30fe9fde8798a8bbea2dca43000029",
  "source": "pragma solidity ^0.4.24;\n\nimport \"../Roles.sol\";\n\n\ncontract MinterRole {\n  using Roles for Roles.Role;\n\n  event MinterAdded(address indexed account);\n  event MinterRemoved(address indexed account);\n\n  Roles.Role private minters;\n\n  constructor() public {\n    minters.add(msg.sender);\n  }\n\n  modifier onlyMinter() {\n    require(isMinter(msg.sender));\n    _;\n  }\n\n  function isMinter(address account) public view returns (bool) {\n    return minters.has(account);\n  }\n\n  function addMinter(address account) public onlyMinter {\n    minters.add(account);\n    emit MinterAdded(account);\n  }\n\n  function renounceMinter() public {\n    minters.remove(msg.sender);\n  }\n\n  function _removeMinter(address account) internal {\n    minters.remove(account);\n    emit MinterRemoved(account);\n  }\n}\n",
  "sourcePath": "openzeppelin-solidity/contracts/access/roles/MinterRole.sol",
  "compiler": {
    "name": "solc",
    "version": "0.4.24+commit.e67f0147.Emscripten.clang"
  },
  "schemaVersion": "2.0.1",
  "updatedAt": "2018-10-07T16:07:43.306Z"
}